:200000000040002079F8000001C9011001C9011001C9011001C9011001C9011001C90110ED
:1C00200001C9011001C9011001C9011001C9011001C9011001C901103FC9011089
:20003C002DE9FE4F0446E14800212C2207460DF0D5F8002002902078A03800F01684801EFE
:20005C0000F0EB830E3800F0EB82401E00F0CC82113800F088820E3840F04884A078029DAB
:20007C001128A84600F27D82DFE810F05D011901710269026602420236021E021002F80120
:20009C007800DD01CA014900BE0112007B02A2010F20387006267E706078B870A588FD705E
:2000BC0028123871207A7871607AB871A07AE268F871E07A04F10C01387202F0010092085B
:2000DC0028BF40F002000968CA0828BF40F004000A0928BF40F008004A0A28BF40F01000E0
:2000FC008A0A28BF40F02000CA0A28BF40F04000090B28BF40F080000A25787230E2207B7D
:20011C000D30C0B2054612F04DFB5FEA000804BF1320607000F025820D2100F8011B062762
:20013C0000F8017B617800F8011BE17800F8011B2179661D00F8011B32680260B18881806E
:20015C00E17A801D00F8011B217B00F8011B2169227B0BF049FC0120029002E26B2012F03C
:20017C0021FB5FEA000800F0948029466B220DF035F846460A2006F8010B062706F8017B65
:20019C00607806F8010B207906F8010BA088001206F8010BA07906F8010BA068002808BF60
:2001BC001C361CD0012006F8010BA068807E06F8010BA168102230460BF016FCA068007C68
:2001DC00103606F8010BA068008A001206F8010BA068123001683160406870600836206982
:2001FC00002808BF1C361CD0012006F8010B2069807E06F8010B2169102230460BF0F4FBDE
:20021C002069007C103606F8010B2069008A001206F8010B20691230016831604068706001
:20023C0008366069002808BF183613D0012006F8010B6169102230460BF0D6FB6069113008
:20025C000168103631608088B0806069007CB61D06F8010BE76801206B250290002F00F037
:20027C00808106F8010BE168102230460BF0BCFBE068007C103606F8010BE068407C06F89E
:20029C00010BE068807C06F8010BE068C07C307067E10A200626387013207E70A9E06078FC
:2002BC00002838D1E07880B3042101EBC001C8B2054612F077FA5FEA000804BF1320607045
:2002DC0023D04FF0010C00F801CB062100F8011B617800F8011BE17800F8011B0299636804
:2002FC000EE01A7800F8012B5A78491C00F8012B9A1C0833166892880660C9B28280801DDA
:20031C00E2788A42EDDCCDF808C0607818B9E078002840F026810120387006267E7060788A
:20033C00B87000201AE12E463E70062078706078E11CB8700A68FD1C2A608988A9806089F9
:20035C00D14D78720012B872207B102205F11801F87207F10C000BF047FB07F11C00102270
:20037C0005F128010BF040FB607805F1180805F12806C0B9CDF80080DFF838831020022256
:20039C000346414607F068FF1020009603224146034607F061FF0835042210200095414652
:2003BC00134607F059FF2C25DAE0C046180E00201220387006267E706078A588B870E38896
:2003DC00FD702812387122897B711812B8716189FA7110123872A68979720812B8720D2516
:2003FC00FE7230123873BBE00E20387006267E706078B870A0880525F87000123871AFE0F5
:20041C000C253D70062078706078A688B870A11DFE70301238710A687B1D1A6089889980E1
:20043C00207BF8729CE00B20387006267E706078E11CB8700A68FD1C2A608988A9806089FD
:20045C0078720012B872207BF872607B11251034387307F10D002168016081E00920387034
:20047C0006267E706078B870E078211DF8700A683D1D2A608988A980E0680E25B872010A08
:20049C00F972030C3B73060E7E7369E00820387006267E706078B870E078241DF870A188B6
:2004BC00381D0A258180D6E70720387006267E706078A588B870E388FD7028123871228962
:2004DC007B711812B8716189FA71101238720B2579720812B87243E006253D707D70607881
:2004FC00B870A688FE7030123871A079787137E00520387006267E706078B870E078211D9B
:20051C00F8700A683D1D2A608988A9806089B8720012F872207B3873E3897B731812B87343
:20053C00268AFE7330123874628A7A741012B874207D1425F87413E00420032501E00320E3
:20055C0005463870062078706078B87008E00220387006267E706078B870E078F8700425C9
:20057C00B84647467EE1A07890B1401E39D1232012F018F92325071C10D0112100F8011BCD
:20059C00062600F8016B617800F8011BE11C22E0632012F007F96325071C02D113206070BD
:2005BC0060E10646102006F8010B062306F8013B6078E11C202206F8010B30460BF014FA55
:2005DC00203604F12301202230460BF00DFA04F1430106F1200020220BF006FA0120029096
:2005FC0040E1029D2F463DE120464678029C56B9067946B9C1880689B9710912F97104248E
:20061C003E723112797201794678A51D41F4B06143883246384611F0A2FE3E467C7159E193
:20063C00DDF8088094F801A046464546BAF1000F18BFBAF1160F40F0B8802079401E1C28F9
:20065C0004D97D3819D0401E11D0AEE0DFE800F0A70FA19B958C8652807A746E655E58524B
:20067C004A3DADADAD342B25ADAD1EAD1EC0B81D04F1080100F03EF996E0207AB871607A3C
:20069C000226F87191E0C046E00D0020B81D04F1080100F033F9022622E0B81D04F108013D
:2006BC0000F030F980E0B81D04F1080100F02EF907E0C0465D930000B81D04F1080100F01B
:2006DC0029F92569001F04262DE0207CB871607C04F10801F87107F1080000F01FF90426BE
:2006FC00801E1FE0B81D04F1080100F01BF9401E012617E0B81D04F1080100F017F953E0E8
:20071C00B81D04F1080100F015F90BE0B81D04F1080100F013F9A56805E0B81D04F108016D
:20073C0000F010F9E5685FFA80F83EE0B81D04F1080100F00BF937E0B81D04F1080100F0C7
:20075C0009F9EFE7B81D04F1080100F007F92BE0B81D04F1080100F005F9C8E7B81D04F19D
:20077C00080100F003F9DDE7B81D04F1080100F001F965690626801FD5E7B81D04F10801BF
:20079C0000F0FCF8B3E7B81D04F1080100F0FAF80AE0B81D04F1080100F0F8F804E0B81DB4
:2007BC0004F1080100F0F6F8C6B206EB0809B9F1260F17DD09F10600019011F0F3FF5FEA27
:2007DC00000B0AD00120029086B1BF1D0BF10600324639460BF008F908E0DDF80880B14621
:2007FC004FF0130A09F10600BB46019065B1B8F1000F06D05E4429464246B61D30460BF06E
:20081C00F3F828460EF0ECFD2079019D40F4A0615F46564620464C46FAE661796278638858
:20083C00384641F4906111F09AFD05466078C8B96079401E0FD00A3807D0083812D17819D9
:20085C0004F1080100F0AAF80AE0781904F1080100F0A8F804E0781904F1080100F0A6F8E2
:20087C004019C5B229463E4635E0A08994F80180093080B205462C2D0CDD11F093FF061CA1
:20089C0005D1A0894FF013082D1AADB202E00120029000E03E46638830464FF49E61424619
:2008BC0011F05DFD20797071A0880012B071207BF071A08900123072A168081C0AD0B8F163
:2008DC00000F05D1A28906F109000BF08DF8A0680EF086FDE9B211B130460DF0D1FF2EB164
:2008FC000298012802D130460FF02CFE0120BDE8FE8F7047DFF800F07D5C0110DFF800F025
:20091C001D600110DFF800F0F55F0110DFF800F0A15F0110DFF800F0755F0110DFF800F0B6
:20093C00A15E0110DFF800F0355F0110DFF800F0A55D0110DFF800F02D5F0110DFF800F01A
:20095C000D5F0110DFF800F0F95E0110DFF800F0B15E0110DFF800F06D5E0110DFF800F07E
:20097C004D5E0110DFF800F0295E0110DFF800F0895D0110DFF800F0255D0110DFF800F061
:20099C00C95C0110DFF800F0B95C0110DFF800F08D5C0110DFF800F0495C0110DFF800F013
:2009BC0095500110DFF800F0D5500110DFF800F0AD4F01102DE9F04F85B011F801ABDFF83E
:2009DC006835DFF868C5DFF868B58146AAF10200132809F1FD0209F1F40609F59C7709F1CF
:2009FC00860809F5AC7409F1660500F28B82DFE810F0D40089021400400043007002890211
:200A1C00980089027000A80073007800DA008F01D501CB007802DF01DF0109F1A004082287
:200A3C00204600F089FA06460821204600F088FA09F1980704223146384600F07DFA042134
:200A5C00384600F07DFA00204142494409EB000291F89F1082F8BF10401C0828F4DB09F199
:200A7C00C702214609F1D70000F06EFA0020A87157E20121B17154E23178707A012900F068
:200A9C0010000DD130B100207870316CB87849080DF0BAFA99F80600002100F059FA0FE0AA
:200ABC0040B1326CDFF88C0409F59D735208494611F0E6FD99F806000122002100F04CFA38
:200ADC0001202870484600F04BFA0121A971B17027E20121F17024E2087870700121F171AB
:200AFC001FE2A87918B93D2030770120F076707A000701D40E2037E100205F1C0B5C1CF83A
:200B1C00006033430B543C5C23401354401C0828F4DB287808B90921C5E148460CF090FF7D
:200B3C00F5E100205F1C0B5C1CF8004023430B543C5C23401354401C0828F4DB0220307227
:200B5C00EFE1A87920B93D2101203177F076E8E1707C012803D10C2171770721A3E111F8A6
:200B7C00010B3075022209F5857000F0E5F90146022209F5867000F0DFF9F07C01210028E6
:200B9C007174E4D10C218EE1707AC10601D41220EAE0484600F0E8F9B9E108783077002140
:200BBC00F176F021F4E0737A980704D413F0110F70D01A22DEE0287C012804BF687C0F2861
:200BDC0008D0687D08B16A7C12B12A7F012A03D158070BD52322CDE010B1687C012803D060
:200BFC0098F80A00012806D1580702D40F2171778AE12A22BEE008784A7800EB0220388195
:200C1C00CA78887800EB022078814A79087900EB0220B881CA79887900EB0220F881087A9A
:200C3C0038744A7A887A02EB00227A82C87A0A7B00EB0220B8828A7B487B00EB0220F882BE
:200C5C000A7CC87B00EB022038838A7C487C00EB022078830A7DC87C00EB0220B883487D3D
:200C7C00897D00EB0120F88309F5A6700490798A0391387C0290B9F808100191F8890090DA
:200C9C00BB897A89398948460CF00AFC18B1707A41076ED467E07889A8F804000022B98912
:200CBC00A8F806100221F889A8F8080088F80010A8F80220B9F83400C01DE883B9F83210A4
:200CDC00B8F80400B0EB510F02BFB8F80600B9F83410884202BFB8F80800B9F83610B0EB08
:200CFC00111F13D0687D18B10F21A976FE21DAE0FC21484600F03CF9F8890090BB897A89C7
:200D1C00398999F8060000F037F90AE10021CAE08A78C8780F798C7902EB0025487907EBF4
:200D3C000027C87901F10B0204EB00240492BBB2487A8A7A00EB022080B20390087A02906E
:200D5C00B9F808200192A2B2009291F800C048780CEB002081B2AAB248460CF0A1FB80B11F
:200D7C00707A410702D40F207077CDE0484600F007F91E22484605B0BDE8F04F0F2100F087
:200D9C0003B9A8F80450A8F80670A8F808400021484605B0BDE8F04F00F0FAB8087820708F
:200DBC004A786270487870700121F1717971B8E00A78487802EB0022628209F5BC77887877
:200DDC00CA7800EB0220E0824A79087900EB022020828879C97900EB0120A08209F5AC71C7
:200DFC0009F5AC70CA8A8089A18B904288BF1046A083884209F5AC7009F5AC7100894A8A46
:200E1C00218B14BF01260026904288BF1046884214BF012100210E4320830122A18B3879A7
:200E3C0000F0BAF8218B814205D3A18B3879012200F0B2F8014609F5AC70798009F5AC719E
:200E5C0040890A8A904288BF1046628B6083904214BF012100210E43824209F5AC7009F5C5
:200E7C00AC728941C089938AE28BC90F984288BF1846904214BF012200221643E08311B1DC
:200E9C00484600F08DF8BAF1140F19D146B1E08B0090638BA28B218B99F8060000F084F8BF
:200EBC00287830B91521484605B0BDE8F04F00F05FB8484605B0BDE8F04F152111F07CB897
:200EDC001EB1387840F008003870397841F0200108E008780F2807D0122802D0142806D000
:200EFC001FE0002139701CE00120387119E099F8780140F0020089F8780140F0100089F857
:200F1C0078010EE086F81DA0484600F051F840B99BF8000005B0BDE8F04F4FF4804109F02A
:200F3C0025BE05B0BDE8F08FEC4D0020D41D00206E4F0020018B0010DFF800F0D1920010BC
:200F5C00DFF800F0AD710110DFF800F09D720110DFF800F069CA0010DFF800F001CA0010EC
:200F7C00DFF800F0B9950010DFF800F05D880010DFF800F0AD7E0010DFF800F0E5BE0010F8
:200F9C00DFF800F0097F0010DFF800F049890010DFF800F0697F0010DFF800F0598F0010AF
:200FBC00DFF800F0DD930010DFF800F065BF0010DFF800F0497E00100EB550218DF8060076
:200FDC000748ADF8001000212C30ADF80210016868468847002814BFFF209DF807000EBD56
:040FFC007C0E002047
:20100000B41200001810000015AB0110FDB301106DC00110FDAE011099B5011000000000F7
:08102000000000002D0000009B
:20102800B01200003C100000B1C00110A9BF011067C0011069B80110000000000000000035
:041048003000000074
:20104C00B012000060100000BDC00110CDB30110D9BD01106DB3011000000000000000005B
:04106C00310000004F
:20107000000000006414002004000000000000000000000020000000E8C9011030000000B2
:20109000281000006C1400200400000000000000000000000C000000D8CA0110180000008D
:2010B0004C1000007414002004000000000000000000000024000000F0CA01101800000011
:2010D000000000007C1400200400000000000000000000001000000018CA01102C0000001D
:2010F000001000008C140020040000000000000000000000200000006CCA01102400000081
:20111000FFFFFFFF941400200400000000000000000000002800000090CA01102400000040
:20113000FFFFFFFF9C1400200400000000000000000000001400000008CB011018000000BF
:20115000FFFFFFFFA414002004000000000000000000000058000000B4C90110340000008D
:20117000FFFFFFFFAC1400200400000000000000000000001000000020CB0110180000005B
:20119000FFFFFFFFB41400200400000000000000000000001C000000B4CA01102400000088
:2011B000FFFFFFFFBC1400200400000000000000000000003800000044CA011028000000B0
:2011D000FFFFFFFFC41400200400000000000000000000005400000078C901103C00000025
:0811F00001000000B8440100F9
:0411F80001000000F2
:0411FC0000000E00E1
:0412000000000F00DB
:0412040032000000B4
:0412080001000000E1
:04120C009C1300200F
:0412100000020000D8
:0412140000000000D6
:0412180001C90110F7
:04121C0000000000CE
:0412200000000000CA
:0412240008000000BE
:0412280000002200A0
:04122C00A0110020ED
:0412300000000000BA
:0412340000000000B6
:0412380008000000AA
:04123C004413002037
:0412400000000000AA
:0412440000000000A6
:04124800080000009A
:04124C00000000009E
:04125000000000009A
:041254000000000096
:041258000000000092
:04125C00010000008D
:041260006C120020EC
:041264000600000080
:041268000100000081
:04126C00D01000207E
:04127000000000007A
:041274000000000076
:041278000002000070
:04127C00000000006E
:02128000290043
:02128200010069
:02128400250043
:02128600300036
:02128800310033
:02128A002D0035
:02128C0001005F
:01128E00015E
:081290000300000060440100AE
:0812980000000000000000004E
:0412A0000000010049
:0412A4000000030043
:0412A80013C401105A
:0412AC00D721010045
:0412B000B812000070
:0412B400B81200006C
:0412B8000000000032
:0412BC0020140020DA
:0412C0008D23010079
:0412C4002000000006
:0412C800E4430100FA
:0412CC00B04201002B
:0412D00029C101101F
:0412D4000FFA00000D
:0412D8003F010100D1
:0412DC00A1C7011095
:0412E000A3C701108F
:0412E4000000000006
:0412E800FF420100C0
:0412EC00BC40010001
:0412F000D4400100E5
:0412F400A440010011
:0212F8000200F2
:0212FA000900E9
:0212FC000100EF
:0212FE000000EE
:0113000001EB
:0413040009230100B8
:041308008904010053
:04130C004118010083
:04131000A50901002A
:04131400F7040100D9
:04131800D5F6000006
:04131C0099C500006F
:04132000552501004E
:041324008DE7000051
:0413280015C70110D4
:04132C0025C70110C0
:201330002DE9F04F0F463B79ADF1240D022BB8BF4020C0F2B083BC6861782278DFF8C482D3
:20135000DFF8C49200264FF0010A402502EB012B0246511E1D2900F29383DFE811F083030F
:201370006F0362034D032D03FD02DD0297027702640241022B020502DD01B70189016901AF
:201390003001200191039103EB00C9008C00800091035A0091032F001E009B1EA41C03AA0E
:2013B00099B2204611F0A8FE002840F06A83AF4910205A4606F056FFC5B269E3DB1EE01CB5
:2013D00099B211F0CFF9061C00F0628303A8009038793246C01E83B20020014611F088FE8D
:2013F000002840F04E8340460078FFF7EBFDA1785A4603AB0091B4490190102006F032FFFB
:20141000C5B2002D40F03D830498002840F0EE8237E3DB1EE01C99B211F0A4F9061C00F0BA
:20143000378303A8009038793246C01E83B20020014611F05DFE002840F02383A078B54994
:201450005A4603AB0090102006F00CFFC5B2002D40F017830498002840F0C88211E39B1E14
:20147000A41C03AA99B2204611F03EFE002840F00883BC499EE003A8A41C9B1E009022467F
:2014900030469BB2014611F02BFE002840F0F98244466069002800F08A82074665782078FC
:2014B000FFF790FD00959DF80C105A463B460191BF490290102006F0D5FEC5B2A5B1616976
:2014D000627837460BE0B80000EBC7004018806818B10DF08BFF616962787F1CFFB2BA42D4
:2014F000F1DC60690FF034F8666137466770C8E29B1EA41C99B2204611F034F9061C00F0EC
:20151000C782387903AA801E81B2304611F0E4FD002840F0B682B14910205A4603AB06F0ED
:20153000A1FEC5B2002D40F0AC820598002840F05D82A6E29B1EA41C99B2204611F012F968
:20155000061C00F0A58203A8009038793246801E83B20020014611F0BBFD002840F0918280
:201570004446606940B93C2011F022F96061002808BF132500F085826178052980F21782A6
:201590008A004F1C03AD02EBC1021218F8B2607095E80B000025AA4682E80B0071E29B1E24
:2015B000A41C03AA99B2204611F08EFD002840F06882B54910205A4606F054FEA7E1A07879
:2015D000E1781B1F221D9BB210F045FB061C00F05F8203A800903A79E178A078121F93B2D4
:2015F000324611F06DFD002840F04B8244469DF81510207851B19DF8140000280CBFBA4956
:20161000BA4907E0E00D0020B8410100FFF7DAFCC049009010205A4603AB06F023FEC5B258
:20163000002D40F02E820498002840F0DF8128E29B1EA41C99B2204611F094F8061C00F066
:201650002782387903AA801E81B2304611F034FD002840F01682BF4910205A4603AB06F08E
:2016700001FEC5B2002D00F0C1810AE29911010003A8A41C9B1E0090224630469BB20146C8
:2016900011F016FD002840F0FC819DF810300DF111024846022111F007FD002800F0878195
:2016B000BDF80C00012840F08281BDF80E004FF6FF71814240F07B8144462078FFF782FC00
:2016D000BC4903461FE1C046CDFF0010022B07DD9B1EA41C99B2204611F044F83B79064652
:2016F000022B02D0002E00F0D3819B1E304603AA99B211F0D5FC002840F0C381BD4910209E
:201710005A4603AB06F0AEFDC5B2002D00F06E81B7E1C046450001109B1EA41C99B2204629
:2017300011F020F8061C00F0B38103A8009038793246801E83B20020014611F0ADFC0028CA
:2017500040F09F8144462078FFF73CFCBA4900905A4603AB102006F085FDC5B2002D00F0BC
:2017700045818EE125900110022B07DD9B1EA41C99B2204610F0F6FF3B790646022B02D02F
:20179000002E00F085819B1E304603AA99B211F07FFC002840F07581B84910205A4603ABA5
:2017B00006F060FDC5B2002D00F0208169E1C04681C0000003A8A41C9B1E0090224630466E
:2017D0009BB2014611F060FC002840F05A8144462078FFF7F7FBB14942E1C046FD8F01100B
:2017F000022B07DD9B1EA41C99B2204610F0BAFF3B790646022B02D0002E00F049819B1E45
:20181000304603AA99B211F03BFC002840F03981A34910205A4603AB06F024FDC5B2002DDB
:2018300000F0E4802DE103A8A41C9B1E0090224630469BB2014611F01FFC002840F02181FA
:2018500044462078FFF7BEFB964909E19B1EA41C99B2204610F086FF061C00F019813879D2
:2018700003AA801E81B2304611F002FC002840F008818D4910205A4603AB06F0F3FCC5B2D4
:20189000002D00F0B380FCE0ED8F011003A8A41C9B1E0090224630469BB2014611F008FC54
:2018B000002840F0EE809DF810304C460DF111050221A01C2A4611F0F7FBC8B99DF810303F
:2018D000484602212A46001D11F0EEFB28B944462078FFF777FB7549C2E044462078FFF7ED
:2018F00071FB734909E0C0464F1301002513010044462078FFF766FB6E49BDF80E20009280
:201910000190BDF80C3010205A4606F0ABFCC5B2B7E0C046012801009B1EA41C99B2204660
:2019300010F020FF061C00F0B380387903AA801E81B2304611F098FB002840F0A2805E49D9
:2019500010205A4603AB06F08DFCC5B2002D4DD097E0C046BD8F011003A8A41C9B1E00902B
:20197000224630469BB2014611F07AFB002840F088809DF810300DF111024846022111F077
:2019900093FBA0B1BDF80C00012810D1BDF80E004FF6FF7181420AD144462078FFF712FB52
:2019B000BDF81410009101904449069BABE7022567E0C046A50D01009B1EA41C99B220460B
:2019D00010F0D0FE061C63D0387903AA801E81B2304611F041FB002853D1394910205A4654
:2019F00003AB06F03FFCC5B2002D4AD14FF0000A47E0C046918F011003A8A41C9B1E0090DE
:201A1000224630469BB2014611F022FB002838D144462078FFF7D6FABDF80E100091294937
:201A30006EE79B1EA41C03AA99B2204611F00CFB38BB25491FE0C046D1070100A41C9B1EAA
:201A5000009403A832460193204902901346102006F008FCA8B944462078FFF7B3FA1C4922
:201A7000009008E09B1EA41C03AA99B2204611F0E7FA30B9174903AB45E7C046518F01100B
:201A900055462EB1BAF1000F02D030460DF0AEFC284610F097F909B0BDE8F08F052801000A
:201AB0002D8F011009280100F18E011019270100791301000D150100BD8E011035DB00002A
:201AD000818E0110CD220100598E0110815C011005080100398E01102DE9F84FDFF854860C
:201AF000DFF85416DFF8546688F800000822002008600D23DFF8480640F2313102704380B4
:201B10008180DFF840060660B77EDFF83C060770FF2FF17E417008BFFF29327F8270737F9A
:201B3000C370B57F0571F67F467115D1FF2A08BFFF2B11D1FF2D08BFFF2E0DD1DFF80C16B3
:201B50000A7802704B7843708A788270CB78C3700A79027149794171DFF8F41502780A7063
:201B7000FF2543784B7082788A70C378CB700279DFF8E0350A714079DFF8DC254871DFF84E
:201B9000DC150D704D708D70CD700D714D710021DFF8CC051180466BDFF8C8157078087075
:201BB0003278DFF8C4151A70B0780870B2681079DFF8B825411E1170F078DFF8B415DFF87B
:201BD000B4250870F068106008B910F0EDF83069DFF8A445206008B910F0E6F82068DFF85F
:201BF0009C7501688847226852F8041F38468847DFF88C05DFF88C15386279627069DFF843
:201C10008815086008B910F0CFF8B069DFF87C15086008B910F0C8F8F069DFF8741508609C
:201C300008B910F0C1F8DFF86CB5DFF86C659BF8040010F015FC306008B900F0C4B99BF881
:201C50000500DFF8587510F00BFC386008B93068B6E19BF80600DFF8484510F001FC2060C2
:201C700020B9306810F00CFC3868A9E19BF80700DFF8309510F0F4FBC9F8000038B9306842
:201C900010F0FEFB386810F0FBFB206898E1DFF8C4140A789BF80000DFF80CA5D21C5043D7
:201CB00080B210F0DDFBCAF8080058B9306810F0E7FB386810F0E4FB206810F0E1FBD9F801
:201CD00000007DE1DFF88C040078002800F09581BBF80210DFF8D4B4484380B210F0C0FBED
:201CF000CBF8040078B9306810F0CAFB386810F0C7FB206810F0C4FBD9F8000010F0C0FB4A
:201D1000DAF808005CE1DFF84C04007810F0A8FBDFF89C14086098B9306810F0B1FB386836
:201D300010F0AEFB206810F0ABFBD9F8000010F0A7FBDAF8080010F0A3FBDBF804003FE1DA
:201D5000DFF810040078400010F08AFBDFF864140860B8B9306810F093FB386810F090FBD2
:201D7000206810F08DFBD9F8000010F089FBDAF8080010F085FBDBF8040010F081FBDFF86A
:201D900030041CE1DFF8CC0300781821484310F067FBDFF824241060E0B9306810F070FB93
:201DB000386810F06DFB206810F06AFBD9F8000010F066FBDAF8080010F062FBDBF80400DE
:201DD00010F05EFBDFF8E803006810F059FBDFF8E403F4E0DFF87C030078400110F040FB40
:201DF000DFF8D813086008BB306810F049FB386810F046FB206810F043FBD9F8000010F092
:201E10003FFBDAF8080010F03BFBDBF8040010F037FBDFF89C03006810F032FBDFF89803E2
:201E3000006810F02DFBDFF88C03C8E0C9480078000110F015FBDFF88813086010BB30681D
:201E500010F01EFB386810F01BFB206810F018FBD9F8000010F014FBDAF8080010F010FB43
:201E7000DBF8040010F00CFBD148006810F008FBD048006810F004FBCF48006810F000FBF7
:201E9000CE489CE0B3480078000110F0E9FACD49086030BB306810F0F3FA386810F0F0FAD1
:201EB000206810F0EDFAD9F8000010F0E9FADAF8080010F0E5FADBF8040010F0E1FABC4880
:201ED000006810F0DDFABB48006810F0D9FABA48006810F0D5FAB948006810F0D1FAB84808
:201EF0006DE09C4800783021484310F0B9FAB64A002810602AD1306810F0C2FA386810F013
:201F1000BFFA206810F0BCFAD9F8000010F0B8FADAF8080010F0B4FADBF8040010F0B0FA2E
:201F3000A348006810F0ACFAA248006810F0A8FAA148006810F0A4FAA048006810F0A0FACB
:201F50009F48006810F09CFA9E4838E09F48814A00781178484310F083FA9D4A0028106054
:201F700036D1306810F08CFA386810F089FA206810F086FAD9F8000010F082FADAF80800DA
:201F900010F07EFADBF8040010F07AFA8848006810F076FA8748006810F072FA86480068ED
:201FB00010F06EFA8548006810F06AFA8448006810F066FA8348006810F062FA82480068BB
:201FD00010F05EFA00200FF0EFFE4FF48041AAE04FF0000ADFF87C9109E010F021FA0021AD
:201FF000418081600180022303710AF1010A99F800105FFA8AF08842EFD3326801201071D3
:2020100031680D733068457331688D733068C57331680D7400213068457400203268D17255
:20203000A0223168487103213068C2800172072032685072002130688172282130680122D8
:202050004182C2760020316848770022306880F85E20012132681177012031684B4E81F83D
:202070005D0001223868027139680D733868457339688D733868C57339680D7400213868E8
:20209000457400203A68D172002239684871386882724FF420703968C88008818A740121FD
:2020B0003B68D9742268157321684D73226895732168CD7322681574002221684D740121C9
:2020D0002368DA7200232268117121684B712168C88008818B7205202268937421683D4A88
:2020F000C874106880473168054608688047316851F8042F0020904719481D4BC1681878AC
:202110000A88354902430A802846344A136898470C21334810F090FF104810F089FF10F073
:2021300083FF4FF4005198F80000BDE8F44F08F023BD00BF6E4F0020044F0020B63F0050D5
:20215000604E0020084F00202C4E0020E81200503C4E00207B4F00200C4F0020344E002095
:20217000BC4401006D4F00206B4F0020724F00206C4F0020F04E0020F44E00207C4B002035
:202190007124010091240100F84E0020FC4E0020941C002014140020104F0020144F0020F9
:2021B000184F00201C4F0020B81D0020684E0020004F0020EC1D0020804E0020844E0020BA
:2021D000884E00208C4E0020904E0020F2140020F01D0020840E0020544F0020880E002083
:2021F000F84D00202DE9F04F0F463B798246ADF1340D184699460228B8BF4020C0F2ED8206
:20221000BC6862782178B24E4FF00008402501EB02210A9101213278099151461D2926DC7C
:202230001D2900F0A9810C2912DC0C2900F05182891E00F09C82891E00F08282891E00F02C
:20225000B382891E00F06982891E00F05382A0E20E3900F01782891E00F09D82891E00F0AC
:20227000E581091F21D0491F00F0B68191E23A2912DC3A2900F09880303900F06381891E2D
:2022900000F06081891E00F04B81891E00F02281891E00F0F5807CE23C3973D0891E5FD0C8
:2022B000891E33D0891E40F074829B1EA41C99B2204610F057FA5FEA000800F08B8203A823
:2022D000009038794246801E83B20020014610F0FFFE002840F076823078BAF1160F03D152
:2022F000FEF770FEBA4902E0FEF76CFEB9490A9A009003AB102005F0B5FFC5B2002D40F096
:2023100061820598002840F0E1815BE2801EA41C81B2204610F026FA5FEA000800F05A8202
:2023300003A8009038794246801E83B20020014610F0C6FE002840F045823078FEF742FE1F
:20235000B9490A9A009003AB102005F08BFFC5B2002D40F037820498002840F0B78131E20E
:20237000801E03A9A41C83B2009122464046014610F08AFE002840F025823078FEF722FE04
:20239000BE49C7E1801E03A9A41C83B2009122464046014610F070FE002840F01382307876
:2023B000FEF710FEB649B5E1022840F30B82A778002F63D0062F61DA3846810001EBC001EE
:2023D00088B210F0F5F900280B9055D0BA00414602EBC7020AF008FF002F08BFC14629D0EF
:2023F000E41CBB46C14623787BB11B1D641C5FFA83FA2046514610F0B5F95FEA000808BFAD
:20241000132517D05346024603E0641C042322469A460B994FEA890000EBC90040180090D8
:202430000020014610F054FE544409F10109BBF1010BD8D1484687420DD13078FEF7C2FD45
:20245000009709990A9A0B9B0191BC490290102005F008FFC5B2002D00F0B48147B10B9C2C
:20247000A06808B10CF0C2FF7F1E04F10C04F7D10B980EF06DF8A5E11325A3E10225A1E173
:20249000801E83B20998A41C224601460FF0E3FB5FEA000800F09E8103A800903879801E82
:2024B00083B209984246014610F00AFE002840F08981BC490A9A102003AB05F0D3FEC5B239
:2024D000002D40F07F810498002840F0FF8079E1E00D0020801EA41C81B2204610F042F983
:2024F0005FEA000800F0768103A80090099938794246801E83B2002010F0E2FD002840F054
:202510006181B7490A9A102003AB05F0ABFEC5B2002D40F057810498002840F0D78051E180
:20253000801E03A9A41C83B2009122464046014610F0BEFD002840F045813078FEF742FDD1
:20255000A849E7E0062840F03D81E178A07867792679BAF1300F00EB012B06EB072904D1B0
:202570001046FEF72FFDA04903E01046FEF72AFD9E495B464A461EE1C01EE21C81B210461A
:2025900010F0F0F85FEA000800F0248103A8009038794246C01E83B20020014610F0A8FDCA
:2025B000002840F00F813078FEF70CFDA17803AB0A9A00918E490190102005F053FEC5B22C
:2025D000002D40F0FF80049800287FD1FAE0C046ED270100F1270100C01EE21C81B2104688
:2025F00010F0C0F85FEA000800F0F48003A8009038794246C01E83B20020014610F078FDFB
:20261000002840F0DF80A0787A490A9A03AB0090102005F027FEC5B2002D40F0D380049829
:20263000002853D1CEE0C046F5270100801EA41C81B2204610F096F85FEA000800F0CA805D
:2026500003A8009038794246801E83B20020014610F036FD002840F0B5803078FEF7B2FCB1
:2026700065490A9A009003AB102005F0FBFDC5B2002D40F0A780049840BBA3E0F927010067
:20269000FD270100801EA41C81B2204610F06AF85FEA000800F09E8003A8009038794246D9
:2026B000801E83B20020014610F0F6FC002840F089803078FEF786FC50490A9A009003ABE3
:2026D000102005F0CFFDC5B2002D7BD10020099078E0801E03A9A41C83B20091224640463A
:2026F000014610F0D1FC00286CD13078FEF76AFC43490FE0801E03A9A41C83B2009122469B
:202710004046014610F0B8FC00285BD13078FEF759FC3C49009003AB4FE0801E03A9A41CE6
:2027300083B2009122464046014610F0C1FC002848D13078FEF746FC3349EBE781C0000022
:20275000801E03A9A41C83B2009122464046014610F07EFC002835D13078FEF733FCBDF83B
:202770000E10009101902949BDF80C3025E0A41C4246801E2649009403AF134601901020EC
:20279000029705F06FFDE8B93078FEF71BFC2149C0E7099D16E01046FEF714FC1E49034622
:2027B0000BE0C046251301001046FEF70BFCA9F10202A31C1949009201900A9A102005F0E2
:2027D00051FDC5B2B8F1000F04D0099810B140460CF00CFE28460FF0F5FA0DB0BDE8F08F6D
:2027F0004F130100192701000D15010079130100CDFF00104500011001280100D107010040
:20281000052801000928010021270100CD220100815C011005080100A50D010035DB000050
:202830002DE9F047CD4DDFF838838C6895F8009013281646ADF1C00D03D930380C2816D915
:202850007EE1DFE810F031017D017D012101C102B8029B0290028B027302660278005F0203
:20287000570236020D020702E301B901AE01DFE810F057003B00670118000D009301910146
:202890008E0167018401820179016901C9492278102005F0E7FC002800F07C810DF058FE29
:2028B00073E160780546083080B20FF081FF061C18D0207806F108073070A11C2A4675704E
:2028D00006F10800776009F095F8CF491020324605F0C8FCC7B2002F00F08C8230460DF0FA
:2028F00037FE87E2132785E222784FF6FF71FF2A08DA262A06D02A2A04DAD849102005F091
:20291000B1FC81B24FF6FF70884214BF0027022785F86A10091285F86B100220307069E20F
:202930002078262800F036812A2880F23381A27863784146F5E106A80021A4220AF054FC51
:2029500061782078A71C00EB0120ADF8180017F8010B8DF81C0017F8010B102239468DF85D
:202970001D000DF11E0009F045F807F110040DF12E001022214609F03DF804F1100616F8C0
:20299000010B10228DF83E0031460DF13F0009F031F806F1100414F8010B8DF84F0014F84D
:2029B000010B202221468DF850000DF1510009F021F820340DF171002022214609F01AF8A5
:2029D00004F120050DF191002022294609F012F805F1200414F8010B8DF8B10014F8010B0A
:2029F0008DF8B80014F8011B0025080131F07F0718BF01252D9BCC4A00F4807701F00F01C6
:202A100000F4C0661340194347EA010323F4606346EA030040EAC52020F470402D9027786C
:202A3000002F08BF00232CD0641C14F8010B8DF8100014F8010B8DF8110014F8010B8DF8F9
:202A5000120014F8010B8DF8130020780023010130F07F0718BF0123059C01F4807701F4C4
:202A7000C066224000F00F00104347EA000222F4606246EA020141EAC32121F4704104ABAA
:202A90000591D04906AA31E104A8002106220AF0ABFB601C04A906220EF05EFE651C00B93B
:202AB0000025D649247863E094F800A0A01C0FF0DDF928B905F11800A11C102208F09AFFB7
:202AD00004F112000FF0D2F9002700B1012705F11806381C06D105F1280004F1120110227E
:202AF00008F088FF94F8251094F8220094F8247094F8233000EB016000EB074005F1280736
:202B100010EB032018BFA8604846FEF75BFA0246607853460090BA49019605F10804029752
:202B30001020039405F09EFB04462878FEF74AFA034641462622102005F094FB204658E1A2
:202B5000012757E1AF496A3504F1200310202246009505F087FB102131704AE1E00D0020A8
:202B70009D070100A84904F1400004F1200500902B46204600E1A5490FE04846FEF722FA9C
:202B9000A3490246102005F06DFB002732E100200227C3E602272DE19E49102005F062FB98
:202BB00027E1A17860789D4A00EB012000909A4923789BE07946011061782078A41C00EBA4
:202BD0000120ADF8100020786178A71C00EB0120ADF8120038787978BE1C00EB0120ADF8EC
:202BF000140072783178B01C01EB0221ADF816100178427801EB0221ADF8181010F8021F40
:202C10008DF81A108649F0E0E145011061782078A41C00EB0120ADF8100020786178A71CF9
:202C300000EB0120ADF8120038787978BE1C00EB0120ADF8140030787178B51C00EB012013
:202C5000ADF816002878697800EB01207549ADF81800CAE07449A3784FE0C0466520010064
:202C700060782578A41C14F8017B14F8016B102205EB0025214604A808F0BCFE10346178E6
:202C90002078A31C00EB0120ADF8200019680DF1220211605C68546013F8080F04AC009608
:202CB00001228DF82A00614901943B460292284662E060782578A41C14F8016B102205EB5F
:202CD0000025214604A808F095FE1034A778E178207800EB016000EB0740554967782A4662
:202CF000334604AC009400EB07200890102005F0B9FA7EE0A7784F493B466278207800EB92
:202D1000022039E0637822784B49A01C02EB032332E04846FEF756F9A17800914749627898
:202D3000237803EB022327E000FEFFFF4846FEF749F98DF8100014F8010B8DF8110014F8BE
:202D5000010B8DF8120014F8010B8DF81300A68805AFBE8021683960394946E04846FEF7A3
:202D700031F938492BE04846FEF72CF961780091A71C0197344923780246B7E714F8010B0A
:202D90008DF8100014F8010B8DF8110021680DF112073960A188A61DB98016F8010B8DF8E3
:202DB000180030788DF819004846FEF70BF9274904AB05467BE74846FEF704F9244902461D
:202DD00014E0C046011701104846FEF7FBF88DF8100014F8010B8DF8110014F8010B8DF86A
:202DF000120020781B498DF8130004AA102005F039FAC7B2384630B0BDE8F087AD850110E1
:202E10008DE00000897901100D790110C5780110BD780110954601100DEC0000CD1A01002A
:202E3000051601107D150110C11701107D180110AD160110BD920110ED170110E5140110D1
:202E50009D98000099450110094501105944011039030100EDBF00002DE9F047DD4C04F1DD
:202E700008012046ADF1180D0CF0EEF80225DD48DD494570DD4E8161DD487060DD48F06090
:202E9000DD48306120783070FEF79CF8DD490246102005F0E7F93078FEF794F8DC490246A2
:202EB000102005F0DFF93078FEF78CF8D9490246102005F0D7F9DD4F06F118002A4600904A
:202ED00039461020034605F0CDF906F128000322394600901020034605F0C4F9083604224D
:202EF000394610200096134605F0BCF92078FEF769F8DA490246102005F0B4F90026207891
:202F10006660FEF75FF8D6490246102005F0AAF9D449102005F0A6F9D34904F1100210202C
:202F300005F0A0F9D14910204FF0FF3205F09AF9CF4910204FF0FF3205F094F9608B00EAA2
:202F50005001C9080FD2010906D2C00838BFCDA103D3D0A1112201E0D3A10E2204F11C003F
:202F700008F048FD08E0D4A10A6804F11C0002604F6847600B89038104F11C0738460FF0B7
:202F9000B1F90097CF4F034632461020394605F069F9A01C01222B4600903946102005F077
:202FB00061F93046014610F03BF84FF0FF0A0425E060A068DD4A00214FF0FF3310F02CF821
:202FD0005FEA0009F5D0002004900DF1160104AA05A80DF02CFD002840F08681BDF8140058
:202FF0004FF00108102840F0798120789DF81610884240F07381049E30884FF6FF71814204
:2030100000F038813078012800F00681912840F0FB8070780E3800F0CD80401E00F09F8073
:20303000401E00F0EB802E380CD0C13840F00F81B08807460CF0B2FB002840F0CD80B278CF
:203050005046C1E0B7783846C01F42D0401F2BD0743814D0401E40F0FA808DF80470311D52
:2030700009880DF105000180B079F71D02AB8DF807003A7939681A710926196050E0B078D6
:203090008DF80400F0788DF805003079711D8DF806000A680DF107073A608988B980F07A17
:2030B0008DF80D00307B38E00C208DF80400F0788DF8050030798DF80600B08800128DF801
:2030D0000700B0798DF80800F07906268DF8090026E0B0788DF8040030798DF80500B088DE
:2030F00000128DF80600B0798DF80700F08800128DF80800307A8DF80900308900128DF8CF
:203110000A00B07A8DF80B00708900128DF80C00307B8DF80D00B08900128DF80E000B26F3
:2031300006F10B00C0B20EF0D9FB071C00F08F803D7087F801A0F01C788007F108037B6068
:203150003D7278683E214170786886702EB1786801A93246C01C08F04DFC384627E0B0882F
:2031700007460CF01BFB002836D142F23200B8426DD1B6780F200EF0B1FB002867D0057038
:2031900080F801A00721418000F108034360057241680F224A7041688D704168CE7041683D
:2031B00043460B7141684F7142683E1296710BF0F1FB4CE0B08807460CF0F0FA60B936F8CB
:2031D000040C0C38C2B20E20B368394607F0ACFF3DE0C0466805002053494FF0FF3008608B
:2031F00035E0C0460802002045680000E00D002041010100C1040100050B010008200DF081
:20321000FDFB24E0318101103046FCF70FFF1FE0252601006126010070680778BF1E07D08A
:20323000BF1E12BF00218178C91C07E0CD1201000279C17801EB0221491D89B20DF038F978
:2032500070680178891E012901D80CF0CFF84046002100B14146884640E0C0463126010075
:20327000518801105DC80000BD140100451701006D1A01007088042826D010282ED12948B6
:20329000083022E0544920424C4520556E6B6E6F776E00C0544920424C45205065726970D4
:2032B000686572616C00C046544920424C452043656E7472616C00C0544920424C452041C2
:2032D0006C6C00C009CB00001648026801A90A604068486001A808210DF0EAF8B8F1000FDD
:2032F00002D004980FF029FA5FEA5900FFF461AEE0680FF08DFE00287FF45BAEE0680FF0CD
:2033100083FE0646E068B0423FF453AEF168B068884730460DF01CF9A06801210FF070FE03
:2033300047E6C0460C4401004C140020010000C02DE9F04F0F46CD4C0168E16241688068B8
:20335000ADF11C0DE060C448A1608047C348E16A0160A168DFF810A34160E168DFF80493E0
:203370008160BF49002FA346C1606FD03D68E8788DF80C0028798DF80D0003A80FF03CFE2F
:20339000A86808B1C5490160E86808B1C4490160C44C287820706878BE686070A878B2681E
:2033B000A0703178A2607368E1702E696360EA6926627968E2620868E06068696062A86968
:2033D0007B68A062286A9E68206395F8240084F834001EB900200EF0E7FC00E0666178681D
:2033F000C06818B900200EF0DFFC00E0A0617868006918B900200EF0D7FC00E0E0617868DE
:20341000406818B900200EF0CFFC00E0206128692062F86881680E6806B9D14ECF494FF0D2
:2034300001084E60C66881F8018036B900200EF0BBFC4D462E68F86801E04D462E600068E6
:203450005446FB68A0615868E06107E000200EF0ABFC4D462E684FF001085446361DD0493A
:203470003668621C04F114035020B04710B1286880688047DBF80800804782460023CE4E04
:20349000CB48CC4F2061994633714A46B370380BF270C7B2401CC1B2377018467170B94269
:2034B00080F2698198B9B9F1000F08D130780EF089F90420F08031790020A1B912E086F86D
:2034D00002900DF0AFFC484606F05EFA07E0B9F1000F02D048460CF0ADF80DF0A3FC3179DF
:2034F000002001B9404610B900200EF05DFC0020C14E2B68A0600746B7609869804770605E
:20351000B64880F800803946418010200EF0A8FFFF211022A0620FF075F9E01CFF2102228F
:203530000FF070F910200EF09BFFAD4E30603068102239460FF066F93846FEF7CDFA384661
:203550000CF0E8FCA7480188FF2906D1A0F8008039467822001D0FF055F902200FF048FD03
:2035700003200FF041FD04200FF03AFD05200FF033FD06200BF0A6F82B689B4907200DF1D2
:203590000E025F68087001AB10200021B847A06ADBF80C10E269082708309DF80E307F1EB5
:2035B00000F8013BF9D1921E5046E261884704F120002B68626A059040461F69DFF82C8209
:2035D00004F120034146B84710B1286880688047B0460DF0E3FF5FEA000903D008F092FDBC
:2035F0004FF0FF39002645E00298216910F8062CA0F10C07032A03D100293BD0884739E0DA
:20361000A16A9DF810C008223046491E11F8013F9C4506D0521E00F10100F7D14FF0FF0AB1
:2036300001E05FFA80FA2868BAF1FF0F00F108001ED038790CF0CCFEB979012904D00229C4
:2036500004BF0299887001E002990870029950460EF074FA0EE0C04641490010F844002089
:2036700010310100D8140020CC1200207C0E0020006880472868C36904A902AA0DF10F00F3
:2036900098470028B0D0D8F800007700C35B5BB9761CF6B2082EF8DB29E0C0466D11010049
:2036B000A51F010068110020082E20DADBF808008047D8F80010002231F807A0CA53DBF808
:2036D0000C1088474A4850F8262026705146304690470646FF202070DBF808008047D8F8E8
:2036F00000107A5A16437E52DBF80C1088470DF055FF0746B9451AD0DBF8080007B93D4F42
:20371000E169B94238BF0F1C804781462868016A206A8847626A28683449059B521C6262A5
:20373000C6683846B047DBF80C1048468847A768296860691431AFB9D8F80000082700264F
:20375000835B33B10969606988472968D8F8000014317F1E06F10206F2D107E02C14002041
:20377000B7E10000096988472968143109684FF0FF3088472DE7384600216A4604230DF055
:20379000A1F9009BB078B3F5801F17D053B9B9F1000F03D048460BF04DFFB078B94619E001
:2037B000B117010038460BF045FFB07812E0C0469520010000D00100CC1D0020002804BFD8
:2037D000381CB77006D00BF035FF38460BF032FF0020B07071787F1CFFB260E61C110020A7
:2037F000081E0020A80F00201A1E002019040100244301008EC2F528AC1D00202DE9F84317
:203810005FEA000906D100200EF0CEFA02E04846FDF7BCFB09F16605687D002800F0838108
:20383000697CDFF89C04002909F1860709F20F1809F1EC0609F59E7443D0012958D00229BE
:203850002FD003295ED0062900F09880072900F06081082900F0C080092900F0CD800A29C4
:2038700000F09F800B2900F0A8800C2900F0D0800F2900F0EB80112900F01581122900F0EA
:20389000DC80142900F01881152900F03981F02900F04B81FC2900F04581FE2900F04F8177
:2038B000B1E7297C012908D1C07808B900F0C7B94846FDF76BFB16213CE148460FF088FB03
:2038D000C9E1297C012940F04B81C078002800F04E8178883978400078804900B888397029
:2038F0004000B880012138890001388129778EE7297C012940F04181C078002818BFB9726B
:2039100085D13EE1297C012940F04281807838B1A078012804D10021A1704846FDF72EFB8C
:20393000B07B012809D10021316071600122BA7306214846FDF732FB6CE7F07B012818D1D0
:203950004846FDF723FB0020B873012129704846FDF70CFB0120A87100217173717A99F86D
:20397000060006291ABF00221A210022FDF7FAFA50E798F8000001283DD014E1287C012803
:2039900040F01881B07A012811D14846FDF7FEFA002030723073F072B073B072F07370734D
:2039B00038E7287C012840F01481F07A012840F00A810021B9730B21BBE7297C012940F0DE
:2039D00011818078002800F011810321B1E700222221FDF7C7FA71E1287C012840F01681E7
:2039F000307C022809F1FD0240F0198199F8061000200FF0E9FA0AE7297C012940F01B81E9
:203A1000807800281FD0B9F82200A9F81E00FEE6287C012840F01A81707E012840F01D8194
:203A3000B07E0128F3D1308C0090F38B327F99F8061000200FF0C4FAE9E6297C012940F08E
:203A50001C818078002800F0FA80E0E6287C012840F017816078012813D1207F0F281CBF3E
:203A700000200EF0A1F900206070607F1A2808BF002117D000210091002300220FF09CFA12
:203A9000C5E6A078012807D10021A17023220F214846FDF77FFABDE62078012840F0CF80CD
:203AB0000021217045E7297C012940F0EE80C078002800F0EE80AAE6287C012840F0EF80F1
:203AD00009F5AF76B07E810613D500F0DF000107B0760BD500F0F700B076308B0090B38AA4
:203AF000F28A718A99F80600FDF764FA002030708DE6810740F1CD8000F0FD00B076F5E72E
:203B1000297C012940F0CF808078002800F0D0807DE64846FDF752FA0128F9D002E00020C2
:203B30000EF042F90020BDE8F283407A0028FAD098F8011048460FF03BFA0120F3E7A87ED2
:203B50000F28ECD1FC214846FDF728FA608900902389E288A18899F80600FDF713FAE1E788
:203B700048460FF021FA2874E88A2883DAE7B9F80A00E98B884209D0D4E748460FF010FAEF
:203B9000F1E7B9F80A00B9898842CBD12821D1E748460FF001FA28740021E88A2883B17353
:203BB0000020F073BFE7288B401E288380B2002822D0B7E748460FF0EBF928740021E88A86
:203BD0002883B172AEE7288B401E288380B298B1A8E748460FF0D8F928740021E88A288374
:203BF000F1729FE748460FF0CBF9BCE7288B401E288380B2002895D1317A99F806000129F0
:203C10007FF4E5AE2221FDF7A9F957E048460FF0B3F928740121E88A2883317482E7288BA9
:203C3000401E288380B20028F8D199F8061022200FF0CAF942E0484609F008FF93E7288BC0
:203C5000401E288380B2002838D06BE70120F07648460FF08DF9287464E7288B401E28835A
:203C700080B20028F8D1308C0090F38B327F99F8061022200FF0A4F920E048460FF074F917
:203C900071E7484607F0F6FA6DE748460FF068F969E7288B401E288380B278B142E74846E7
:203CB0000EF090F95FE7152148460EF08BF95AE7288B401E288380B20028EFD1222139E767
:203CD0005C4D00202DE9F84FDFF86C54696884B0019121B905B0BDE8F04F0FF03DB9097897
:203CF000DFF858A4DFF858B4DFF85884DFF8586401291CBF0229042946F2A81741F64C5988
:203D100005D0402918BF802900F0F8800AE20EF069FC0028FAD00198007805F083FA009019
:203D3000446814B900200EF03FF8DFF820144878002800F0A48002F019FA0EF0A1FA02906E
:203D50000168009801914F6807F0B8FD02286AD000990A78012A04D0022A25D0042A41D07F
:203D7000E0E1DFF8EC3319680A7A1BF80230337018B90FF0EDF84844A0602069C17E01F095
:203D9000EF01C1762069C17E41F08001C1762069C17E01F0F00141F00201C176B86821697C
:203DB0004044C861012035E10521317018B90FF0CFF84844A0602069C17E01F0EF01C17645
:203DD0002069C17E41F08001C1762069C17E01F0F00141F00201C176B86821694044086275
:203DF000022017E10621317018B90FF0B1F84844A060DFF860030168887C08F09BFC20690D
:203E1000C17E01F0EF01C1762069C17E41F08001C1762069C17E01F0F00141F00201C17675
:203E3000B8682169F3E001980178802913D10820C94930700A78012A03D0C448417802290C
:203E500003DB39690120C87213E0DAF828003A690178D1720DE0C049072030700A7838694B
:203E7000012A02D10121C17203E0DAF828104A78C2720298B54A8179019891704DE1009809
:203E9000002819D00199009A007891420ED1401E012806D9C01E05D1AE480168887C08F02E
:203EB00049FCB8E000200DF07FFFB4E0012804D0022815D0042819D034E1A54801680A7AD6
:203ED0001BF8020030700FF043F83918A0680FF03BF818B90FF03CF84844A060012099E02E
:203EF0000520307002210098A97016E10620994930700A68907C08F01DFC8AE093494878E5
:203F1000002800F0BA8002F031F90EF0B9F90290016801914C688D4988780EF0B1F9039021
:203F30000EF066FB10F0070F7AD0A87805F07AF900904768019907F0C1FC022870D000999A
:203F50000A78012A04D0022A24D0042A40D064E07F4B19680A7A1BF80230337018B90EF0A8
:203F7000F7FF4844B8603869C17E01F0EF01C1763869C17E41F08001C1763869C17E01F005
:203F9000F00141F00201C176A06839694044C86101203FE00521317018B90EF0D9FF484424
:203FB000B8603869C17E01F0EF01C1763869C17E41F08001C1763869C17E01F0F00141F025
:203FD0000201C176A068396940440862022021E00621317018B90EF0BBFF4844B8605D4842
:203FF0000168887C08F0A6FB3869C17E01F0EF01C1763869C17E41F08001C1763869C17E0A
:2040100001F0F00141F00201C176A0683969404408620420A87000987FE000200DF0C4FE99
:2040300003980299884226D001984B490278802A12D1082030700978012903D043484178BC
:20405000022903DB21690120C87210E0DAF8280022690178D1720AE0072030700978206976
:2040700001290EBF0122DAF828104A78C2720298364A8179917001984FE00EF0B9FA10F088
:20409000070F55D0A87805F0CDF804462078D4F804A0012804D0022817D0042826D047E052
:2040B0002B490A68107A1BF8001031700EF050FF3918DAF808000EF047FF20B90EF048FFE2
:2040D0004844CAF80800012025E0052030700EF03FFF3918DAF808000EF036FF20B90EF01E
:2040F00037FF4844CAF80800022014E0062030700EF02EFF3918DAF808000EF025FF20B9F7
:204110000EF026FF4844CAF8080012480168887C08F010FB0420A870204605B0BDE8F04F11
:2041300006F0E8BD05B0BDE8F04F00200DF03CBE05B0BDE8F08F00BFB81D0020BC44010096
:20415000289A0110F0D8FFFF6F4F0020684E0020104F0020184F0020734F00202DE9F843C9
:20417000DFF84804DFF8485401781D24082984B000F21282DFE811F01602090009000900F9
:204190000900B200590116021602DFF82864DFF828843068036803F10807062207F10801B5
:2041B00002A80DF087FF0622B91C68460DF082FF3878C10900F00F02032AC0F38019DFF8CE
:2041D000FC7339D17079C0F38000814240F0DF813169062202A80DF091FC002804D0694646
:2041F00048460EF0ADFE002800F0D181294668460EF0A2FE0146FF296FD03868807A4C437C
:20421000002818BF02280BD0012818BF032864D1681C2A5D011940460EF08AFE10285CD095
:20423000E81D07196B463A46291940460EF07CFE062269463846A8E100F00F00052862D19B
:204250007079C0F38000814247D13169062202A80DF054FC002840D0694648460EF070FEBD
:2042700000283AD0294668460EF066FE0146FF2933D03868807A4C43002818BF01280BD0DF
:20429000022818BF032828D1681C2A5D011940460EF04EFE102820D040F202400BF0A4FDBC
:2042B000E81D07196B463A46291940460EF03CFE0622694638460DF0FDFEC148C14A41F204
:2042D0000441418041834186BF480180BF49C04811600121007806F04FFC58E1BD4E30687D
:2042F000016801F1080999F8000010F00F0F1CBF00F00F01062908D000F00F02022A1CBFA9
:2043100000F00F00012840F04D81062209F1020168460DF0CFFE99F80000AF4FC0F38018F0
:2043300000F00F0001283DD1062209F1080102A80DF0C0FE99F800004FEAD01902A94846BB
:204350000EF0FEFDD0B13868807C022818BF03285ED105F10D0102A80CF0A4FC002857D043
:2043700039680120C8720622707940F00400707102A938680C300DF09DFE13E02878814593
:2043900010D10622691C02A80DF0B8FB50B12878717960F38201717106223868691C0C3059
:2043B0000DF088FE694640460EF0CAFD00282FD070696946001F0EF0B3FD002828D1294664
:2043D00068460EF0B9FD01463868807CFF2920D04C43002818BF02280CD0012818BF0328B1
:2043F00016D1681C73692A5D0119181F0EF0A0FD10280DD02919E81D071974696B463A4669
:20441000201F0EF091FD0622694638460DF052FEC8E0002818BF0228FAD1706901234246FE
:204430006946001F0EF078FDBCE06C4E3068016801F1080999F8000010F00F0F1CBF00F057
:204450000F00012824D1062209F1020168460DF031FE99F80000DFF88881C0F3801700F075
:204470000F00012848D1062209F1080102A80DF021FE99F800004FEAD01902A948460EF000
:204490005FFD20B3D8F80000C07A022818BF03287DD105F10D000EF03BFD002877D105F1BA
:2044B0000D0102A80CF0FEFB002870D0D8F80000062202A90C300DF0FDFD707940F00400E4
:2044D0007071062202A9E81D0DF0F4FD14E02878814511D10622691C02A80DF00FFB58B182
:2044F0002878717960F3820171710622D8F80000691C0C300DF0DEFD694638460EF020FD91
:20451000002844D0294668460EF016FDFF283ED0D8F800104443887A2F1920BB887C0DF05F
:20453000AFFE804698F82601022818BF032800D068BB295D00F00100814228D108F59074EE
:2045500006222146781C0DF0D9FA00B3012088F826010622717941F008017171204669469A
:204570000DF0A8FD0EE030692A5D791C001F0EF0DFFC10280BD030696B46FA1D3946001FDC
:204590000EF0D2FC06226946F81D0DF093FD31680A680020107105E000200DF005FC862071
:2045B0000EF0B2FC05B0BDE8F08300BF6F4F0020AC450020F44B0020CC470020104F0020B3
:2045D000204A0020204F0020504F0020595501106E4F0020D04B0020144F0020AC4B002082
:2045F000184F00202DE9F04FC94D4FF000094846ADF1140D0146C5F810900EF011FDA8606C
:20461000484601460EF00CFD4946E86005F114032A46382009F092FBB74CB848B84F04F17D
:204630000C063060B86880478046B749B548C160B649016107F058F8F9684046884706F1A8
:20465000040AB84606F108000290B61F039663E010300DF043F9606100B303210170FF2754
:2046700047706178029E817021896FF31F3181802189C1F301318171A188092301813168BA
:20469000A788237001F11002002FC26040F0AD81E368002B00F085811020EBE084F8009022
:2046B0000DF03CF918B1686901210EF0A9FC5FEADB0026D3E8680EF0ABFCD0B9E8680EF070
:2046D000A3FC071C15D0A96969B1687858B1401E02D0401E0AD103E0B8680DF03FF9A9695B
:2046F000B868884702E0B8680DF038F938460BF02FFFE8680EF08CFC18B9686904210EF049
:204710007FFC5FEA9B0007D3A8680EF081FC18B9686908210EF074FC6869CA4A49464FF0D9
:20473000FF330EF079FC8346D8F808008047D8F80C10884701A80DF106016A460CF077F9D7
:2047500060BB28789DF80610884227D100980BF04DFF071C22D00C200EF02AF8061C1AD0D5
:20477000D8F808008047B7603B78049043B9A86831460EF0C5FB686908210EF041FC05E0D1
:2047900030460BF0E5FE38460BF0E2FED8F80C100498884702E038460BF0DAFE5FEA1B105E
:2047B0002DD3A8680EF034FC08BBD8F808100DF0EFFEE0B988470646A8680EF029FC90B9E6
:2047D000A8680EF099FB071C0DD0B86840682861B9684868498807F06FFDB8680BF0B8FE00
:2047F00038460BF0B5FED8F80C1030468847A8680EF00EFC18B9686908210EF001FC5FEA25
:204810005B00FFF454AFF0E06089401E87B2002F678100F0C680E8E06769A1789DF807004D
:20483000FA685054A078401CC3B2A3700DF076F8A1880646C91AB14207DAF86889B2C0185C
:204850000BF0EEFEA088C1B208E0F8683146C0180BF0E6FEA0788019C1B2A0888842A17029
:2048700040F0C380E368002B00F09B80029909681030C0B24A46984793E09DF80710A088C0
:2048900084F8029040EA0120B0F5877FA0807FF7DFAE60810A2088E02769A078796840188D
:2048B0009DF807100171A078401CC3B2A3700DF035F8A1880646C91AB14208DA786889B25C
:2048D000C018001D0BF0ACFEA088C1B209E078683146C018001D0BF0A3FEA0788019C1B29E
:2048F000A0888842A17040F08080E368002B58D0DAF800100C30BCE7841300204DE9000029
:204910007C0E0020700800208D1901006DD20000080200209DF8070084F802909DF807707F
:20493000A08007F10C000CF0D9FF206130B3DAF80010627808314160039B0A704268197822
:204950005170426859789170A7884168CF70FF264670E1883F23B3EBA12F0AD1C1F3C21678
:204970003EB1932101704168887800F00300887001E0022101700420207000E0A788002F18
:2049900033D1E3686BB1DAF800100C2072E79DF807009DF8077060707F1E08D07F1E012F7B
:2049B00002D984F8009020E0052020701DE00120FBE7082727709DF80700A08015E00727A6
:2049D0009DF807102089277040EA012020810CE006219DF807002170F8E703279DF80710FA
:2049F000E088277040EA0120E0800CF097FF00283FF456AE0DF1070001210BF011FE207843
:204A10000A28F2D8800001A109588F469F490000494A0000EB49000025490000A948000024
:204A3000E1490000CF490000C34900008B480000294800001948000002219DF80700217023
:204A5000D2E7C0464F0000802DE9F84F0D46E80788B00CD50DF0F4FC30B100218160DFF859
:204A7000E803006800B1804785F00100E9E128074FF01D0BDFF8D46375D5DFF8D4130A68FD
:204A9000907C0DF0FDFB044604F5907094F8267107904FF00008DFF8B80301688A7CC146B9
:204AB000FF2A04BF00200DF07FF9079A394630460EF01EFA0799824638460EF041FA0BFB94
:204AD0000AFBC0B1BAF1FF0F26D016F80B7006EB0B0047F00207411C079107F00100F21DE0
:204AF00084F8260102EB0B080799062204F590700DF0E0FA10E0079938460EF0F5F9002849
:204B100018BFBAF1FF0F07D006F10D0058440EF0FFF908B947F00207CD480168C87A02289D
:204B300018BF032806D106F10D000EF0F1F908B906F10709002006903B46E18E090905918A
:204B50000022A08E0490618E0798CDF8088049080391CDF8049000900020A1790EF0C0F9C7
:204B700085F008006DE1E8060FD500210022002306910592049103930291019200910220F0
:204B90000EF0AEF985F010005BE1A8070FD5002100230691059104910393029101910091BA
:204BB00001223C200EF09CF985F0020049E16807A84F40F18A80A848817800240794FF29C1
:204BD00004BF00200DF0F0F8386890F8A0000DF057FB80463868C07A98F82691022818BFFE
:204BF000032808F5907A06D106F10D000EF090F908B9F01D0790514648460EF0A1F990B3AC
:204C10003868807A002818BF012804D1314650460EF092F904E05246494630460EF068F977
:204C3000FF2836D00BFB00FBF01D00EB0B040622514620460DF03EFA16F80B00396840F0EB
:204C5000020906EB0B0000F1010A887E00F0010088F826010622386800F1140108F59070D8
:204C70000DF028FA15E0514648460EF03DF980B15246494630460EF03BF9FF2809D006F1C0
:204C90000D010BFB00F288180EF042F908B949F0020908F12C004B46017806914289120974
:204CB00005920122B8F822100491C08807990191400803900294CDF800A0002098F806109D
:204CD0000EF00EF985F00400BBE028060FD500210023069105910491039302910191009147
:204CF00001223B200EF0FCF885F08000A9E0E8044CD5F11D06F10D000EF0EEF83868017A98
:204D1000012918BF042932D1C17A02291EBF0329817E01292BD1817E00F1140230460EF044
:204D3000E7F8FF2812D00BFB00F0341804F10D000EF0EEF850B9E11D04F10D000EF0CCF888
:204D500038680622E11D14300DF0B4F93868C07A022818BF03280AD106F10D000EF0D8F8DC
:204D700028B938680622F11D0C300DF0A3F93B4842683B4800784FF480510AF0FDFD10B1A6
:204D90008E2008F07BF885F480505AE0A80505D50DF0EBFB334901200860FEE7680504D5CD
:204DB00005F081FA85F480604BE0680405D5812008F064F885F4804043E0A90440D52A4C20
:204DD000206810B100200CF0EFFF284E4FF0FF3020600EF07DF83168254C51F8202F684649
:204DF00090472449244B486A8A6A009001920293C86A0268086A0392ADF810000A6B11783C
:204E1000002904BF5068002805D19068002804BFD068002806D02170506860609168A160C4
:204E3000D068E06021463468144A266814486B46B0471449086002F0ABFF85F4005000E0ED
:204E5000002009B0BDE8F08F204F0020AC450020184F0020104F0020684E0020784E0020E3
:204E70006E4F0020FC002043044F0020F04E00206845002068110020412401002C4D0020B0
:204E9000981C0020EC4E0020FEB5DFF84803DFF848230578DFF84403DFF84473DFF8443346
:204EB000DFF844130D2D41F2064641F202444CD8DFE815F08F010E000E000E000E00680062
:204ED0009D00E0000D0146014601640164016B01106041F20446DFF814034188B1421FBFFE
:204EF000478BB742478EB74203D11E80DFF80003B7E00029DFF8FC6219804FF4A0573AD0EB
:204F1000491E3DD0491E36D040F2FE3CB1EB0C011CD0091F01291FD94FF47F7CB1EB0C016E
:204F30001CD04FF4406CB1EB0C010FD0891E01290CD9091F0AD0491E01290DD940F2F93371
:204F5000C91A012917D9091F08D03AE1022D14BF1F80A94E1660EBE0A84EFBE7A8490B6814
:204F70001D7A012D03D1448044834486F2E7478047834786EEE700200CF016FF832024E14E
:204F90008F2022E19F494C881C80002C106051D0641E68D0641E4DD040F20240241A24D03B
:204FB000641E47D040F2FB30241A17D04FF44060241A3FD0641E18D0641E012C33D9241F2E
:204FD00013D0641E36D0641E0FD04FF47E70241A30D0641E09D0E41E07D046E0887B4E805B
:204FF00025280CBF2720401E8873874839E087494C881C80002C10601CD0641E33D0641E32
:2050100018D040F20240241A2AD0641E12D040F2FB30241A1DD04FF44060241A0AD0641E83
:205030001ED0641E012C40F27D80A41E0ED0A41E16D0641E76D0641E12D04FF47E70241AB1
:2050500070D0641E0CD0E41E0AD00EE0704911606EE0887B4E8025280CBF2720401E8873D7
:205070006C48106064E08F2060E000200CF09CFE84205BE0B978FF2939D010601820664C78
:2050900041432068851C40F204466C5A1C80A41B012C624B71D94FF47F76A41B0FD04FF479
:2050B0004066A41B032C84BF641F012C0BD9A41E012C62D940F2FD36A41B33D103E0801CA4
:2050D00041F201444452136005F0EEF830E0B978FF2952D0106018204F4D41432868861CDF
:2050F00040F20447755A1D80ED1B012D4C4B70D94FF47F77ED1B11D04FF44067ED1B0FD0AE
:20511000AD1E012D84BFED1E012D09D9AD1E012D5FD940F2FD37ED1B04D101E0801C4452A1
:20513000136005E000200CF03FFE85200DF0ECFE03B0BDE8F0403B480078012105F01CBDAF
:2051500040F204424888188090421CBF41F2084290423ED041F60402904211D1324C33486B
:20517000334B00680025CDE900450222314C256855F8086FB04730490880F7BD4888188013
:2051900000200CF011FE85201FE04888188002280DD940F20442801A1BD040F6FC72801A7D
:2051B00005D0083815D04FF47F72801AE8D1887B801CC2B2B52AA8BF66208873002048809C
:2051D000F7BD00200CF0F0FD8420BDE8FE400DF09BBEF7BD6F4F0020204F00206F2701006D
:2051F000684E0020504F0020CC4C0020204A002059550110615A0110B1540110755B0110C6
:20521000104F00209C4C002079C400006C4C0020D9550000E9C30000804E0020313901109F
:20523000C97200006E4F002002000080EC4E002001070100F04E0020424F00202DE9F84FF5
:20525000D74CA178FF2904BF00200CF0ADFDA0780DF016F8044604F1680504F19006296866
:20527000086810B10021E1830CE0A87B002804BFA97E002906D13078002801BF207F0128EF
:20529000608CE0832189E08B4118491C618120460DF01AFE01281EBFC2480178012904D1F7
:2052B00021890020491CE08361814FF6FF77A87E01280DD1AA8B618920890DF001FE38B1D5
:2052D000218960894A1C93B298421BD0A88B0FE03078012816D17288618920890DF0F0FD6A
:2052F00080B1218960894A1C93B298420AD0708892B2904206D03818608180B20DF0DCFD5E
:205310003F18E78304F5967999F8040020B120890021401CE183608104F12E07A87E01286A
:205330003ED12289A88B521C92B2904238D1608104F1860120460DF0BBFDA88C6084002132
:205350002177E183E08961894118A181A88B21890DF0B2FD8046B988288C6A8C01FB08082D
:20537000E88C8A4204BF3989884202BFAB8CF9888B4207D000090090AB8CA179520800200D
:205390000DF01AFEA87F3870698CB980A88CF8802046E98C39810DF087FD0220A87601E008
:2053B000B7F80480B4F81EC022687F4ED2F80CE00CF1010000FB08F340F6C41000FB03F126
:2053D0008E44C2F80CE03668DFF8E0E13678BEF80080774AB609032E11D1D67BF60748BF43
:2053F0004FF000080BD408F101081FFA88F6012E12BF668AB9F8066006F2DC5600E0668ADD
:205410005E434FF4C87AB6FBFAF6761C6661AEF80080A3614FF0180894F806A084F820C045
:2054300008FB0AFADFF88CC1DCF800E023680EF1080656F80AB0C3F810B094F806A008FB2D
:205450000AFACDF800A0D3F80CB0D4F814A0ABEB0A0ADDF800B046F80BA094F806A008FB7F
:205470000AFA56F80A609E600EF10C06A37908FB03F30EF10C0EF65C06F0F00646F00206A7
:205490000EF803604FF0000ADCF800E0A6790EF1020308FB06F623F806A0474BA6791B687F
:2054B000760103F1140AD4F814B05AF806A00AEB4B0A03F1140B4BF806A0AD7E022D0BD14F
:2054D000A5796D0103F1140697F800B056F805A000FB0BAA46F805A0BD88D27BA779D607CE
:2054F00037D508FB07F70EF10802D659A6F5A86A0EF1080646F807A0A77908FB07F7D2596C
:205510002768511A3961BA6003F11402A1794901575807F5F667575003F11401A279520139
:205530008958C9F800106843244A156BA779296803F11C067F01401AA0F51670F0512049AA
:20555000A07903EB40100B78012B14D10121C17214E003F114027F01D1592A464243A1F5C8
:20557000E661A2F516729142DDD3082120460DF01FFD012011E0916A4A78C272A179DCF899
:20559000000008FB01F281182268516007200D490870204608F0D6FD0020BDE8F28F00BF06
:2055B000684E0020784F0020084F0020101E00205C4D0020804E0020844E0020BC440100AF
:2055D000734F00206F4F00202DE9F84FC24DDFF80C832968DFF808A3887C0CF051FE04467D
:2055F00028680021417104F12E062868BD4D0AF05DF90120607104F5937998F80100401C41
:2056100088F801001827802007F076FC20606969C160B548018949007180C079B1884000CB
:20563000307049003089B18000013081314620460DF03EFC0520A08120460DF035FC286857
:205650000DF02EFC062210F8081FC1F3801189F80010811C04F590700CF02CFD2968A34DAA
:205670000A680020107141F60202A1792868794342520021A3797B430344001D5980A2797F
:205690007A438150012120460DF006FCA27929687A430A449073A179286879430144002060
:2056B000C873A1792A6879431144887BF072DAF80020A079296802EB401378430844143155
:2056D0000361A0798A4A78430A50A0790DF0E0FBA179DAF8002049015050A1794B01D058DF
:2056F00020B9072120460DF063FCF0E0DFF804B2DBF8000000EB01100DF0C6FBA179DBF800
:205710000020DAF80000DFF8F0B102EB0113021D4901535004F16801A3795B01D2580A6098
:20573000A3795B01C2588A60DBF81410097894F806E0CA074CBF102200228B074CBF2023E3
:2057500000235FEA417C4CBF4FF0400C4FF0000C09074CBF802100211A434CEA020200EBD0
:205770004E100A4342F00F020272DAF80010A07901EB40120B215172DAF80000A27900EBB7
:20579000421104208872DAF80020A17902EB41105A4A1378012B02D10121C17203E0DBF805
:2057B00028100A78C272DAF80000A279636A00F10C0152018B50A17900EB4110A16A01742F
:2057D000DAF80000A27900EB4211A06A000A4874DAF80010A07901EB4012A06A000C90746B
:2057F0000821474A107805F0C7F92168A2792868CB687A4302449360CA68CB680A618B608A
:2058100000F10C02A17979430C30535C03F0EF034354A0792968784301F10C020C31135C2B
:2058300003F07F030B54A0792968784301F10C020C31135C03F0F00343F002030B54A279DB
:2058500028687A431044417B01F0F00141F001014173A079B688DAF800204FEA401C40F6FE
:20587000C4104643DBF83000016802F11403761AA6F5167643F80C60A07902EB4010C17C54
:2058900001F0F00141F00401C174A179286822684F43C1195160B9F83A001B2804BFB9F8B8
:2058B0003C001B2809D1B9F83E00B0F5A47F04BFB4F86601B0F5A47F03D014212046FBF7CA
:2058D0005DFB104908200870A27988F80220BDE8F14FFEF7F7B900BF184F0020684E002004
:2058F000844E0020AC4B0020844C0020804E00205C4D00208C4E0020BC440100734F00200B
:205910006E4F00206F4F0020BB482DE9F84F0025BA4CB849056094F8E200002800F065815F
:20593000012800F02F81B64E02283CD0032840F05C8151F8250CD4F8B8100029A0F5C06030
:20595000C4F8D400B8BF49420028B8BF4042814226DA4FF08057D7F8A4014568B4F8BC0022
:2059700030214FF47F42082300903046A847D7F8A4014568B4F8C00004214FF4F80212237E
:2059900000903046A847D7F8A401B4F8D070456820214FF440620A2330460097A847012580
:2059B00084F8D8501CE151F8258C0CF0DEFD2F4600B901273946934F38680028FCD0B14623
:2059D000012609F10409D9F82CA03E6009B10CF0D2FDCAF30720C4F8BC000CF0C6FDAA46BE
:2059F00000B9B2463B68002BFCD0D9F800B0BAF1000F3E6001D00CF0BEFDCBF38440C4F8AD
:205A1000C0000CF0B2FDAA4600B9B2463B68002BFCD0D9F81C90BAF1000F3E6001D00CF02E
:205A3000AAFDC9F38120C4F8D000B8F5C061C4F8B81000F09C8094F8D80068B9C4F8D41043
:205A5000D4F8C000C4F8C800D4F8BC70C4F8C470D4F8D030C4F8CC30D4F8D400D4F8BC3062
:205A7000002854BF02226FF0010204F1C8010F6800EB40008018421000EB927207EBA20088
:205A90000860D4F8C810C4F8C43000291CDD1E293CDDD4F8CC0030B93429B4BF15391E21DA
:205AB000C4F8C81025E02A29BABFD4F8C8000B381E20C4F8C800D4F8C4003F28B4BF401C12
:205AD0003F20C4F8C4001FE0D4F8CC00032812D011F10B0FC6BFD4F8C8000B30301CC4F8BB
:205AF000C800D4F8C4000028C4BF401E051CC4F8C450032508E011F1150FC6BFD4F8C800F5
:205B10001530301CC4F8C800C4F8CC504FF08057D7F8A401B4F8C43030214FF47F4245685C
:205B3000374800930823A847D7F8A40104214FF400321123456832480096A847B4F8C86067
:205B5000D7F8A40104214FF4F802122345682C480096A847D7F8A40120214FF440620A23BD
:205B7000B4F8CC60456826480096A84701E084F8D85040F2FF50404502D8801C40452FD216
:205B9000082030E051F8251C1F4F4BF2F5204843060A3868C0F3814001280CD11B480068F3
:205BB000006880470AF0A8F80CF0EBFC3111C010484306EBE03694F8E50030B91448006867
:205BD00020F07F403618760801E084F8E5501148310C0660012741600F4D8760287808B91F
:205BF0000B2000E0052084F8E40002F073FABDE8F88FC0462D400C402C500C40CC0C0020FB
:205C100000A00C4000800C40B43F0050EC010010102009403C600C40C94301002DE9F84FB1
:205C3000DFF8C8A20F460446F80B80F01281AA4EDFF89882B80F80F0C380B80880F0B780A4
:205C50003809C0F0388108200CF0B4FC002840F0A98080200CF0AEFC002840F0A3806846C6
:205C700005F090FD012803D10098002800F09A8095480078002840F0958000250124E8B225
:205C90000CF0EAFA48B1837A3BB1847290F9090004FA00F0C0B20AF0BBFA6D1C032DEED321
:205CB00045464FF0030905F1AC0085F810900CF071FD87480168002398461A46036050F891
:205CD000081C844940F8088C05F134000CF06CFD3068006B8047A968401A010BA869C1F164
:205CF000FF3282422CBF08444FF0FF30A861287F20B1E868A969B1EBC02F25D90BF07EFE17
:205D1000414600B12146081C1BD0744840F60901018043464380417B04F00F0221F00F011A
:205D30000A434273017B03F00F0621F00F0146EA0102027343600CF063FB418811F4406F8A
:205D5000FBD02C774346AB616548016821F0020141F400710160634941F8049C41F2300215
:205D70008A600C6050268E600C604FF4CA628A600C6041F80C4C4446046002200AF06AFC27
:205D9000112004F059FF287818B9686838300CF015FD687F18B16C7705200AF05BFC52481C
:205DB00068612C7408F060FA27F0080783E003F0DDFE45467435286808B927F002077AE0C2
:205DD0000CF0ECFCB3468146DBF85400016804208847D8B1207CC8B1454608352868A8B13D
:205DF0000646DBF80000E568006B8047801BE060000BE060A84202D240194008E06040F6FA
:205E1000C41181422CBFB0F5FA7FE16048460DF037F80AF0E1F990B1A56920466FF48071F9
:205E300000224FF00073A847464606F16C052868002808BF47F0020701D008F015FA20469E
:205E5000646900214FF080630A46A04727F0005731E00CF0A3FC51460E6846B306F12801AB
:205E700006C90A234FF0E0450B40154008BF002B1DD106F1280191E8300006F1280393E8CC
:205E9000060006F12803AA43A14383E806000CF0F7FFB16869B1002D08BF002C09D03069D1
:205EB0002246B6F93C10B4682B46A04701E00CF0E7FF27F4804727B15046394650300CF0ED
:205ED00085FCBDE8F88FC046991600200015002014100440C1E500008C010010841D00208F
:205EF000000004600C410440C9AA0000801500202DE9F04F8246DAF80070DAF804600C468E
:205F10005FEA0208ADF11C0D14BF00214FF0FF31DFF8449248460CF016FA002818BF0B2083
:205F300040F01681002590488D4905708B48FC6052460CF039FC317B27200CF037FCB8F17F
:205F5000010F07D0657002200AF04CFE06200AF049FE01E0012060702078012840F2AB80B8
:205F7000801E012868D9801E012833D9801E012800F2DF800CF012FC83464FF0805000F547
:205F9000EE77D0F8DC01A378466A009321782846062908BF0120019001200290A068228A73
:205FB000E1686368B047814658460CF069FFB9F1000F40F0C080B8F1000F02D00CF056F800
:205FD00002E050460AF098FC002800F0A4803868806A2AE00CF0E2FB83464FF0805000F535
:205FF000EE77D0F8DC01012306680093A168A27860682478AC46042C08BF9C466346B04770
:20601000814658460CF03CFFB9F1000F40F09380B8F1000F02D00CF029F802E050460AF0BF
:206030006BFC002877D03868406880474D49C1F8B0510D6081467EE00CF0B0FB83464FF0DA
:20605000805000F5EE76D0F8DC01E38A87690093E0680190208B0290A0780390207D049080
:206070000121059122782846022A08BF081CE1786268A368B847814658460CF001FFB9F101
:20609000000F58D1B8F1000F02D00BF0EFFF02E050460AF031FC00283DD03068006A8047A8
:2060B0005FEA000947D13068C569A168E28A2369E078A847BEE70CF071FB83464FF0805073
:2060D00000F5EE76D0F8DC01E38AC7680093E0680190208B0290A0780390207D2946049022
:2060F00001200590257805B9014608466268A368E178B847814658460CF0C2FEB9F1000FE3
:2061100019D1B8F1000F02D00BF0B0FF02E050460AF0F2FB08B914201AE0306840698047FB
:206130005FEA000907D1306802692169E078904780E74FF0FF39B8F1010F05D002200AF0E1
:2061500089FA06200AF086FA03480CF037FB484607B0BDE8F08FC04628100020601000203C
:20617000CD13010050450240181E00202DE9FE4F8A4C617811B900200BF016FE0CF0E8FE14
:2061900006464FF0000806F6C4160027844DDFF8149211E038460CF073F8417951B12A68ED
:2061B000817902F8081008F101015FFA81F831460CF062FE7F1CFFB299F800008742E9DBB9
:2061D0006178884505D000200BF0EEFD82200CF09BFE6078012840F0C380002701E07F1CE0
:2061F000FFB299F80000874280F2B48038460CF047F8064670790028F1D02968B0790A78CB
:2062100090421CBF00200BF0CFFDB079A0E0286810F809000CF034F800684268DAF808106C
:206230009068814204BF3E4609F1010900F0A680A8E0286890F800B001224FF4C0710FE05C
:20625000636803F5AD76835C01FB03F901FB0BFE36F809C036F80E60B44538BF9B46521C9A
:20627000FBB29A42ECDB4FF6FF700CF001FE064658460CF005F84C490068D0F804A0086853
:20629000D94630F8192060684FF4C07300F10E0103FB09F3C85AB2EBD00F52D2720840F6C4
:2062B000C410424300920027404A0190029217E058460BF0E5FF01680A78802A03D1DAF85E
:2062D0001030009A5A610978402908D1029980790A6802EB4011009800F5A060C8617F1CC1
:2062F00047452EDA2868C05D8345F8D001464FF4C073594363685A1803F5AD73D289595A01
:2063100053088B4202D2521A9045E8DA0BF0B8FF01684A68019B9168DAF808207008A1F603
:20633000C41103FB00200CF00FFE0028C0D01E48006830F81910491C20F81910286810F83C
:2063500007B01948026800215B4622F813105846BDE8FE8F00200BF027FD82200CF0D4FD2E
:20637000617828680CF080FD286800780BF088FF00260068D0F804A04FF00109771CC145C5
:20639000FFF645AFF6B2002E1CBFF8B200287FF450AF286890F800B065E700BF684E002066
:2063B000004F00207B4F0020EC1D0020844E002010B50B7884074CBF43F0020303F0FD0350
:2063D00004064CBF43F0800303F07F0304074CBF43F0080303F0F70384064CBF43F0200341
:2063F00003F0DF0310F0AA0F0B7003D0107840F00C0003E018B9107800F0F300107010BD81
:206410002DE9F8430D4600272878022814461E4669D1696808784978DDF8208000EB01204C
:2064300080B25FEA08021CBFB0F5285F0B205DD14FF42851401A0AD0401E23D0401E4CD0AC
:20645000401E27D0401E2DD0A23846D04BE0DDF82490E8680CF0D8F980B2A0EB08024A4565
:20647000BCBFA0EB08001FFA80F909EB0800162806DAA6F800904A46E86800EB08010DE063
:206490000D2732E0E8680088022131802070000A60702AE0062030800622E96820460BF0D6
:2064B00009FE22E0E868B0B1082131800288227003881B0A63704188A1704288120AE27087
:2064D000818821718288120A6271C188A171C088000AE07109E0308007E001213180E86877
:2064F0000278227001E0378001273846BDE8F2832DE9F0470F4681463878002402289046EB
:206510001D4671D17868089E01784078DFF8E0A001EB002189B24FF42852891A08D0491ED1
:206530002BD0491E50D0491E3BD0A3395AD05BE0F8680CF069F980B2B04204D3A91916295C
:2065500003DB0D2451E007244FE0FB682A46414698190BF0AFFDAD19F868ADB2C5F116028C
:20657000002140190CF04EF9DAF8000000281CBF0268002A39D0002123E08EBB022DE0D18F
:2065900098F8000098F80110FA6800EB01201080DAF8000000281CBF0268002A25D001213C
:2065B0000FE0EEB9062DCCD1F868062241460BF081FDDAF8000000281CBF0268002A14D090
:2065D00003214846904710E056B9012DB9D198F80000002813BF0128F9680870802404E057
:2065F0000B2402E0032400E001242046BDE8F087001E00202DE9F04385B011F8017B044641
:20661000082F04F1FD0004F1FC0804F1760504F5A076844A844BDFF8149213D0092F21D0A3
:206630000F2F2FD0112F01BF287801286878102840F0D5800A78327648787076012184F839
:206650003D11EBE00025521C4E5D5F5D3E434E55575D3E4046556D1C082DF5DB204607F03B
:20667000F5F974E00024571C0D5D1E5D35430D553A5D15400555641C082CF5DB022088F806
:206690000000CBE098F80100820704D410F0110F57D01A2266E008784A7800EB0220308085
:2066B000CA78887800EB022070804A79087900EB0220B080CA79887900EB0220F080087AC7
:2066D00030724A7A887A02EB00227281C87A0A7B00EB0220B0818A7B487B00EB0220F081F5
:2066F0000A7CC87B00EB022030828A7C487C00EB022070820A7DC87C00EB0220B082487D6A
:20671000897D00EB0120F082494801788A0658BF1A2212D504F5A670049071890391307A36
:20673000029021890191F0880090B38872883188204606F0BBFEE0B11E2298F801004107C6
:2067500010D40F2088F815002046FAF737FC002864D199F8000005B0BDE8F0434FF4804178
:2067700004F00ABA204605B0BDE8F0430F21FAF711BC7088A882B188E9820221F088288364
:20679000297400206882A18EA88AC91DE981618EB0EB510F02BFE88AA18E884202BF288B07
